:020000040000fa
:080000000002040000000000f2
:020000040000fa
:040008002c030000c5
:020000040000fa
:04000c002c030000c1
:020000040000fa
:040010002c030000bd
:020000040000fa
:040014002c030000b9
:020000040000fa
:040018002c030000b5
:020000040000fa
:04001c002c030000b1
:020000040000fa
:040020002c030000ad
:020000040000fa
:040024002c030000a9
:020000040000fa
:040028002c030000a5
:020000040000fa
:04002c002c030000a1
:020000040000fa
:040030002c0300009d
:020000040000fa
:040034002c03000099
:020000040000fa
:040038002c03000095
:020000040000fa
:04003c002c03000091
:020000040000fa
:040040002c0300008d
:020000040000fa
:040044002c03000089
:020000040000fa
:040048002c03000085
:020000040000fa
:04004c002c03000081
:020000040000fa
:040050002c0300007d
:020000040000fa
:040054002c03000079
:020000040000fa
:040058002c03000075
:020000040000fa
:04005c002c03000071
:020000040000fa
:040060002c0300006d
:020000040000fa
:040064002c03000069
:020000040000fa
:040068002c03000065
:020000040000fa
:04006c002c03000061
:020000040000fa
:040070002c0300005d
:020000040000fa
:04007400c8020000be
:020000040000fa
:040078002c03000055
:020000040000fa
:04007c002c03000051
:020000040000fa
:040080002c0300004d
:020000040000fa
:040084002c03000049
:020000040000fa
:040088002c03000045
:020000040000fa
:04008c002c03000041
:020000040000fa
:040090002c0300003d
:020000040000fa
:040094002c03000039
:020000040000fa
:040098002c03000035
:020000040000fa
:04009c002c03000031
:020000040000fa
:0400a0002c0300002d
:020000040000fa
:0400a4002c03000029
:020000040000fa
:0400a8002c03000025
:020000040000fa
:0400ac002c03000021
:020000040000fa
:0400b0002c0300001d
:020000040000fa
:0400b4002c03000019
:020000040000fa
:0400b8002c03000015
:020000040000fa
:0400bc002c03000011
:020000040000fa
:0400c0002c0300000d
:020000040000fa
:0400c4002c03000009
:020000040000fa
:0400c8002c03000005
:020000040000fa
:0400cc002c03000001
:020000040000fa
:0400d0002c030000fd
:020000040000fa
:0400d4002c030000f9
:020000040000fa
:0400d8002c030000f5
:020000040000fa
:0400dc002c030000f1
:020000040000fa
:0400e0002c030000ed
:020000040000fa
:0400e4002c030000e9
:020000040000fa
:0400e8002c030000e5
:020000040000fa
:0400ec002c030000e1
:020000040000fa
:0400f0002c030000dd
:020000040000fa
:0400f4002c030000d9
:020000040000fa
:0400f8002c030000d5
:020000040000fa
:0400fc002c030000d1
:020000040000fa
:040100002c030000cc
:020000040000fa
:040104002c030000c8
:020000040000fa
:040108002c030000c4
:020000040000fa
:04010c002c030000c0
:020000040000fa
:040110002c030000bc
:020000040000fa
:040114002c030000b8
:020000040000fa
:040118002c030000b4
:020000040000fa
:04011c002c030000b0
:020000040000fa
:040120002c030000ac
:020000040000fa
:040124002c030000a8
:020000040000fa
:040128002c030000a4
:020000040000fa
:04012c002c030000a0
:020000040000fa
:040130002c0300009c
:020000040000fa
:040134002c03000098
:020000040000fa
:040208002c030000c3
:020000040000fa
:04020c002c030000bf
:020000040000fa
:040210002c030000bb
:020000040000fa
:040214002c030000b7
:020000040000fa
:040218002c030000b3
:020000040000fa
:04021c002c030000af
:020000040000fa
:040220002c030000ab
:020000040000fa
:040224002c030000a7
:020000040000fa
:040228002c030000a3
:020000040000fa
:04022c002c0300009f
:020000040000fa
:040230002c0300009b
:020000040000fa
:040234002c03000097
:020000040000fa
:040238002c03000093
:020000040000fa
:04023c002c0300008f
:020000040000fa
:040240002c0300008b
:020000040000fa
:040244002c03000087
:020000040000fa
:040248002c03000083
:020000040000fa
:04024c002c0300007f
:020000040000fa
:040250002c0300007b
:020000040000fa
:040254002c03000077
:020000040000fa
:040258002c03000073
:020000040000fa
:04025c002c0300006f
:020000040000fa
:040260002c0300006b
:020000040000fa
:040264002c03000067
:020000040000fa
:040268002c03000063
:020000040000fa
:04026c002c0300005f
:020000040000fa
:040270002c0300005b
:020000040000fa
:04027400c8020000bc
:020000040000fa
:040278002c03000053
:020000040000fa
:04027c002c0300004f
:020000040000fa
:040280002c0300004b
:020000040000fa
:040284002c03000047
:020000040000fa
:040288002c03000043
:020000040000fa
:04028c002c0300003f
:020000040000fa
:040290002c0300003b
:020000040000fa
:040294002c03000037
:020000040000fa
:040298002c03000033
:020000040000fa
:04029c002c0300002f
:020000040000fa
:0402a0002c0300002b
:020000040000fa
:0402a4002c03000027
:020000040000fa
:0402a8002c03000023
:020000040000fa
:0402ac002c0300001f
:020000040000fa
:0402b0002c0300001b
:020000040000fa
:0402b4002c03000017
:020000040000fa
:0402b8002c03000013
:020000040000fa
:0402bc002c0300000f
:020000040000fa
:0402c0002c0300000b
:020000040000fa
:0402c4002c03000007
:020000040000fa
:0402c8002c03000003
:020000040000fa
:0402cc002c030000ff
:020000040000fa
:0402d0002c030000fb
:020000040000fa
:0402d4002c030000f7
:020000040000fa
:0402d8002c030000f3
:020000040000fa
:0402dc002c030000ef
:020000040000fa
:0402e0002c030000eb
:020000040000fa
:0402e4002c030000e7
:020000040000fa
:0402e8002c030000e3
:020000040000fa
:0402ec002c030000df
:020000040000fa
:0402f0002c030000db
:020000040000fa
:0402f4002c030000d7
:020000040000fa
:0402f8002c030000d3
:020000040000fa
:0402fc002c030000cf
:020000040000fa
:040300002c030000ca
:020000040000fa
:040304002c030000c6
:020000040000fa
:040308002c030000c2
:020000040000fa
:04030c002c030000be
:020000040000fa
:040310002c030000ba
:020000040000fa
:040314002c030000b6
:020000040000fa
:040318002c030000b2
:020000040000fa
:04031c002c030000ae
:020000040000fa
:040320002c030000aa
:020000040000fa
:040324002c030000a6
:020000040000fa
:040328002c030000a2
:020000040000fa
:04032c002c0300009e
:020000040000fa
:040330002c0300009a
:020000040000fa
:040334002c03000096
:020000040000fa
:100400004f8020000e7f22000e01880000000000b7
:10041000000020000000e000020032000001200087
:1004200020028800140007008d0007000000e00093
:1004300003003a004069200001002000020037005c
:100440000000200001002000810f70000100320038
:1004500014000700000020000000e000020032004d
:10046000000002000000000004060200000000007e
:100470000040da000000fe004440a9000000200017
:100480000000e0000300320000002000a00188000e
:100490004440a800000006008a1f78008b1f7800e7
:1004a0000000060091018800800478000000eb0045
:1004b0001a003700e284440032a0b4009905ba0063
:1004c000e284440032a0b4009906ba00e2844400f9
:1004d00032a0b4000006eb00476fde00fd07b2005b
:1004e000636ce10003003a00ebff07000000eb0043
:1004f0000a003700606ce10004003a00005deb0088
:100500008b05e900fdff3e00040037006168e10053
:10051000010032000086eb000b00070019c7ba008b
:100520001905ba000e04e00003003a000a00e000da
:10053000e0ff3a0000000600fe07b2009e018800be
:100540008a047800f5ff3700395dba008b05e900b1
:100550000c003200295dba008b05e900080032006a
:100560000c00e00003003a00e284440032a0b40032
:10057000f5ff370019ddba008b05e900faff3a00f4
:100580008904e800e184440032a0b40000000600c1
:100590003600f800809fbe00829fbe00849fbe0090
:1005a000869fbe000000fa00800c200001002000a1
:1005b000cf010700a116800000002200008060002b
:1005c0000000e00006003a00004080000000e90062
:1005d0000040880010c0b30002e8b7000c003700ec
:1005e000a116800000042000008060000000e000f0
:1005f00006003a00004080000000e800004088004b
:1006000010c0b30002e8b70001003700000000008e
:10061000a116800000002200008060000000e000c1
:10062000fbff3200a1168000000420000080600063
:100630000000e000f6ff32008660a9000080fa00aa
:100640004f03be004f02be004f01be004f00be0070
:100650003600f900004006000040da000000fe000d
:040660000000050091
:020000040000fa
:100664000c00fa0040079800510798006000b80099
:10067400008fbe00160037006000b8002007980005
:100684003107980007003700000000002e0090009a
:10069400be00900061004000e08048002007980000
:1006a400310798002e019000be0190003006200012
:1006b40001002000800f5100818f5900f2ff3600a5
:1006c40012002000030020001e0f41005e97490025
:1006d4004e009000de0090001e01be00800f51000d
:1006e400818f5900e4ff39000080fa000000060001
:1006f4000000fa000080eb0060198800c022ef00bf
:100704000080eb00901688006a60a80069e0a800e9
:1007140061e0a8006260a8008660a9009660a80055
:100724000080fa00000006000200fa000040eb001e
:10073400004f78000268ef00060037001e80fb00bf
:10074400201688001e4fe800e02e20000100200043
:10075400c3ff070002c8bf000004e000f7ff320037
:100764000080fa00000006000200fa0000c0eb005e
:10077400004f78000268ef00060037001e80fb007f
:10078400201688001e4fe900e02e20000100200002
:10079400b3ff070002c8bf000004e000f7ff320007
:1007a4000080fa00000006000200fa000040eb009e
:1007b400004f78000268ef000c0037001e80fb0039
:1007c4000000d100004078001e40680010479800e7
:1007d4001e4090000080fb00201688001e4fe80099
:1007e400e02e2000010020009dff070002c8bf008a
:1007f4000004e000f1ff32000080fa00000006006f
:100804000200fa0000c0eb00004f78000268ef001d
:100814000c0037001e80fb000000d100004078006f
:100824001e406800104798001e4090000080fb00a6
:10083400201688001e4fe900e02e20000100200051
:1008440087ff070002c8bf000004e000f1ff320088
:100854000080fa00000006000200fa000040eb00ed
:10086400004f78000040eb00104798000268ef004a
:10087400170037001e80fb00c400dd001e409000fe
:100884000080fb000100700020168800e02e20008c
:100894000100200072ff07001e4090000040e800a5
:1008a400104798001e409000e94f500003003600a6
:1008b4000040eb00104798001e4fe8001e407800ef
:1008c400e94f5000020036000040eb00004f780072
:1008d40002c8bf000004e000e6ff32000080fa0016
:1008e400000006000200fa0090c0b300004f780038
:1008f40090c0b300104798000268ef001d00370055
:100904001e80fb00c400dd001e4090000080fb0040
:100914000100700020168800e02e20000100200055
:100924004fff07001e4090000004e00004003a005e
:1009340090c0b300104798001e4fe9000300370031
:100944001e4090000040e900104798001e407800c7
:100954000004e00007003a001e4090000004e0009c
:1009640004003a0090c0b300004f780090c0b30078
:100974001047980002c8bf000004e000e0ff320006
:100984000080fa00000006000400fa0070c0b30002
:10099400004f780010002000100798000268ef0054
:1009a400210037001e80fb0020168800e02e200066
:1009b400010020002aff07001e009000e10f5000f4
:1009c4000c003a001e40780000404000004f7800c0
:1009d40080c7b3009e40780080cf500012003600dc
:1009e40000ceb300004f78000080eb0010079800a1
:1009f4000d0037001e009000e10f40000a003a008d
:100a04001e80fb000000d100004f78001e407800db
:100a1400e64f500004003e0070c0b300004f780061
:100a2400100020001007980002c8bf000004e00076
:100a3400dcff32000080fa00000006000600fa0025
:100a44000040eb00004f78000268ef003a003700e6
:100a54000040eb00004f78000000eb001007980006
:100a64002700370010c0b300104798000000eb00c7
:100a740020079800150037001e4090001e407000ab
:100a84000080fb0020168800802520000100200043
:100a9400f3fe070002c8bf000004e0002a003a0089
:100aa4001e009000e70010002e009000808f500080
:100ab400030032001e4090000040400010479800a0
:100ac4002e0090000000e800200798001e0090000f
:100ad400e80010002e009000808f500003003600c4
:100ae40002c8bf000004e000e3ff32001e40900093
:100af4001e4f70001e0090000000e80010079800d0
:100b04001e009000e70f500003003e0002c8bf0023
:100b14000004e000d3ff3200f00f2000201688000c
:100b2400803e200001002000cdfe070002c8bf0067
:100b34000004e00006003a0002c8bf000004e00020
:100b4400c3ff32000300370000000000010037003b
:100b5400000000000080fa00000006000200fa0015
:100b640010c2b300004f78000268ef002000370085
:100b74009e80fb00f00320000080600020168800a7
:100b84008025200001002000b5fe07001e80fb0028
:100b94004200de00004078001e406800804078007b
:100ba4001e80fb004300de000040780080c0680027
:100bb4001e80fb004500de000040780000c0680095
:100bc40061406000104798001e80fb000000d100c7
:100bd40000407800804078001e4090000080fb00b8
:100be4004500dd000040780000c07000004f780030
:100bf40002c8bf000004e000ddff32000080fa00fc
:100c0400000006000000fa00b9fe07000040800062
:100c14000000e00003003a0090002000004088003b
:100c24000500370000408000e90f50000200360044
:100c3400100020000040880000408000e50f5000b4
:100c44001f003200e50f50000c003e00e20f500080
:100c540015003200e20f500003003e00e10f500087
:100c64000f003200e9ff3700e30f5000100032009c
:100c7400e40f500010003200e4ff3700e70f50008b
:100c840013003200e70f50000f003900e80f500046
:100c940011003200e90f500011003200dbff370071
:100ca400a1fe070010003700affe07000e0037005a
:100cb400bdfe07000c003700d1fe07000a00370014
:100cc400e5fe07000800370006ff070006003700ae
:100cd4002dff07000400370058ff0700020037000b
:0c0ce4009eff070000000000c8ff370062
:020000040000fa
:100cf000f03fb1000180b10006003500ee030900ad
:100d000000000000403fb1000180b100fbff3d004a
:100d10001000b000203fb000020035000080090044
:080d20000000000000000600c5
:020000040000fa
:100d280000080000020000000200000001000000ae
:100d3800020800000200000000000000000000009f
:020000040000fa
:020000040002f8
:04aff8009f7800003e
:020000040000fa
:020000040002f8
:04affc007f3f000093
:00000001FF
