:020000040000fa
:080000000002040000000000f2
:020000040000fa
:04000800c80200002a
:020000040000fa
:04000c00c802000026
:020000040000fa
:04001000c802000022
:020000040000fa
:04001400c80200001e
:020000040000fa
:04001800c80200001a
:020000040000fa
:04001c00c802000016
:020000040000fa
:04002000c802000012
:020000040000fa
:04002400c80200000e
:020000040000fa
:04002800c80200000a
:020000040000fa
:04002c00c802000006
:020000040000fa
:04003000c802000002
:020000040000fa
:04003400c8020000fe
:020000040000fa
:04003800c8020000fa
:020000040000fa
:04003c00c8020000f6
:020000040000fa
:04004000c8020000f2
:020000040000fa
:04004400c8020000ee
:020000040000fa
:04004800c8020000ea
:020000040000fa
:04004c00c8020000e6
:020000040000fa
:04005000c8020000e2
:020000040000fa
:04005400c8020000de
:020000040000fa
:04005800c8020000da
:020000040000fa
:04005c00c8020000d6
:020000040000fa
:04006000c8020000d2
:020000040000fa
:04006400c8020000ce
:020000040000fa
:04006800c8020000ca
:020000040000fa
:04006c00c8020000c6
:020000040000fa
:04007000c8020000c2
:020000040000fa
:04007400c8020000be
:020000040000fa
:04007800c8020000ba
:020000040000fa
:04007c00c8020000b6
:020000040000fa
:04008000c8020000b2
:020000040000fa
:04008400c8020000ae
:020000040000fa
:04008800c8020000aa
:020000040000fa
:04008c00c8020000a6
:020000040000fa
:04009000c8020000a2
:020000040000fa
:04009400c80200009e
:020000040000fa
:04009800c80200009a
:020000040000fa
:04009c00c802000096
:020000040000fa
:0400a000c802000092
:020000040000fa
:0400a400c80200008e
:020000040000fa
:0400a800c80200008a
:020000040000fa
:0400ac00c802000086
:020000040000fa
:0400b000c802000082
:020000040000fa
:0400b400c80200007e
:020000040000fa
:0400b800c80200007a
:020000040000fa
:0400bc00c802000076
:020000040000fa
:0400c000c802000072
:020000040000fa
:0400c400c80200006e
:020000040000fa
:0400c800c80200006a
:020000040000fa
:0400cc00c802000066
:020000040000fa
:0400d000c802000062
:020000040000fa
:0400d400c80200005e
:020000040000fa
:0400d800c80200005a
:020000040000fa
:0400dc00c802000056
:020000040000fa
:0400e000c802000052
:020000040000fa
:0400e400c80200004e
:020000040000fa
:0400e800c80200004a
:020000040000fa
:0400ec00c802000046
:020000040000fa
:0400f000c802000042
:020000040000fa
:0400f400c80200003e
:020000040000fa
:0400f800c80200003a
:020000040000fa
:0400fc00c802000036
:020000040000fa
:04010000c802000031
:020000040000fa
:04010400c80200002d
:020000040000fa
:04010800c802000029
:020000040000fa
:04010c00c802000025
:020000040000fa
:04011000c802000021
:020000040000fa
:04011400c80200001d
:020000040000fa
:04011800c802000019
:020000040000fa
:04011c00c802000015
:020000040000fa
:04012000c802000011
:020000040000fa
:04012400c80200000d
:020000040000fa
:04012800c802000009
:020000040000fa
:04012c00c802000005
:020000040000fa
:04013000c802000001
:020000040000fa
:04013400c8020000fd
:020000040000fa
:04020800c802000028
:020000040000fa
:04020c00c802000024
:020000040000fa
:04021000c802000020
:020000040000fa
:04021400c80200001c
:020000040000fa
:04021800c802000018
:020000040000fa
:04021c00c802000014
:020000040000fa
:04022000c802000010
:020000040000fa
:04022400c80200000c
:020000040000fa
:04022800c802000008
:020000040000fa
:04022c00c802000004
:020000040000fa
:04023000c802000000
:020000040000fa
:04023400c8020000fc
:020000040000fa
:04023800c8020000f8
:020000040000fa
:04023c00c8020000f4
:020000040000fa
:04024000c8020000f0
:020000040000fa
:04024400c8020000ec
:020000040000fa
:04024800c8020000e8
:020000040000fa
:04024c00c8020000e4
:020000040000fa
:04025000c8020000e0
:020000040000fa
:04025400c8020000dc
:020000040000fa
:04025800c8020000d8
:020000040000fa
:04025c00c8020000d4
:020000040000fa
:04026000c8020000d0
:020000040000fa
:04026400c8020000cc
:020000040000fa
:04026800c8020000c8
:020000040000fa
:04026c00c8020000c4
:020000040000fa
:04027000c8020000c0
:020000040000fa
:04027400c8020000bc
:020000040000fa
:04027800c8020000b8
:020000040000fa
:04027c00c8020000b4
:020000040000fa
:04028000c8020000b0
:020000040000fa
:04028400c8020000ac
:020000040000fa
:04028800c8020000a8
:020000040000fa
:04028c00c8020000a4
:020000040000fa
:04029000c8020000a0
:020000040000fa
:04029400c80200009c
:020000040000fa
:04029800c802000098
:020000040000fa
:04029c00c802000094
:020000040000fa
:0402a000c802000090
:020000040000fa
:0402a400c80200008c
:020000040000fa
:0402a800c802000088
:020000040000fa
:0402ac00c802000084
:020000040000fa
:0402b000c802000080
:020000040000fa
:0402b400c80200007c
:020000040000fa
:0402b800c802000078
:020000040000fa
:0402bc00c802000074
:020000040000fa
:0402c000c802000070
:020000040000fa
:0402c400c80200006c
:020000040000fa
:0402c800c802000068
:020000040000fa
:0402cc00c802000064
:020000040000fa
:0402d000c802000060
:020000040000fa
:0402d400c80200005c
:020000040000fa
:0402d800c802000058
:020000040000fa
:0402dc00c802000054
:020000040000fa
:0402e000c802000050
:020000040000fa
:0402e400c80200004c
:020000040000fa
:0402e800c802000048
:020000040000fa
:0402ec00c802000044
:020000040000fa
:0402f000c802000040
:020000040000fa
:0402f400c80200003c
:020000040000fa
:0402f800c802000038
:020000040000fa
:0402fc00c802000034
:020000040000fa
:04030000c80200002f
:020000040000fa
:04030400c80200002b
:020000040000fa
:04030800c802000027
:020000040000fa
:04030c00c802000023
:020000040000fa
:04031000c80200001f
:020000040000fa
:04031400c80200001b
:020000040000fa
:04031800c802000017
:020000040000fa
:04031c00c802000013
:020000040000fa
:04032000c80200000f
:020000040000fa
:04032400c80200000b
:020000040000fa
:04032800c802000007
:020000040000fa
:04032c00c802000003
:020000040000fa
:04033000c8020000ff
:020000040000fa
:04033400c8020000fb
:020000040000fa
:100400004f8020000e7f22000e01880000000000b7
:10041000000020000000e000020032000001200087
:1004200020028800140007005b0007000000e000c5
:1004300003003a00c05c20000100200002003700e9
:100440000000200001002000810f70000100320038
:1004500014000700000020000000e000020032004d
:100460000000020000000000500502000000000033
:100470000040da000000fe004440a9000000200017
:100480000000e0000300320000002000a00188000e
:100490004440a800000006008a1f78008b1f7800e7
:1004a0000000060091018800800478000000eb0045
:1004b0001a003700e284440032a0b4009905ba0063
:1004c000e284440032a0b4009906ba00e2844400f9
:1004d00032a0b4000006eb00476fde00fd07b2005b
:1004e000636ce10003003a00ebff07000000eb0043
:1004f0000a003700606ce10004003a00005deb0088
:100500008b05e900fdff3e00040037006168e10053
:10051000010032000086eb000b00070019c7ba008b
:100520001905ba000e04e00003003a000a00e000da
:10053000e0ff3a0000000600fe07b2009e018800be
:100540008a047800f5ff3700395dba008b05e900b1
:100550000c003200295dba008b05e900080032006a
:100560000c00e00003003a00e284440032a0b40032
:10057000f5ff370019ddba008b05e900faff3a00f4
:100580008904e800e184440032a0b40000000600c1
:0c0590000040da000000fe000000050042
:020000040000fa
:10059c000000fa000080eb0060198800c022ef0018
:1005ac000080eb00901688000080fa000000060026
:1005bc000000fa00a11680000004200000806000fa
:1005cc000000e0000b003a00006a28001100200037
:1005dc006001070000000000a1168000000420004c
:1005ec00008060000000e000fbff32000080eb00a8
:1005fc0011003700a1168000000820000080600068
:10060c000000e0000b003a00006a280011002000f6
:10061c005001070000000000a11680000008200017
:10062c00008060000000e000fbff320010002000a2
:10063c00010037000000eb000080fa00000006000b
:10064c000400fa000040eb00004f78000100370076
:10065c00000000001e80fb00201688001e4fe800e2
:10066c0000242400f10020003a010700d0ff07000d
:10067c00100798001e0090000000e000f4ff32000c
:10068c00114080001e009000008040001040880047
:10069c000080fa00000006000400fa0000c0eb0025
:1006ac00004f780001003700000000001e80fb00a6
:1006bc00201688001e4fe90000242400f1002000c1
:1006cc0024010700baff0700100798001e009000d5
:1006dc000000e000f4ff3200114080001e0090008a
:1006ec0000804000104088000080fa0000000600e6
:1006fc000400fa000040eb00004f780001003700c6
:10070c00000000001e80fb000000d10000407800bb
:10071c001e406800104798001e4090000080fb00af
:10072c00201688001e4fe80000242400f100200051
:10073c00080107009eff0700100798001e0090009c
:10074c000000e000eeff3200114080001e0090001f
:10075c0000804000104088000080fa000000060075
:10076c000400fa0000c0eb00004f780001003700d5
:10077c00000000001e80fb000000d100004078004b
:10078c001e406800104798001e4090000080fb003f
:10079c00201688001e4fe90000242400f1002000e0
:1007ac00ec00070082ff0700100798001e00900065
:1007bc000000e000eeff3200114080001e009000af
:1007cc0000804000104088000080fa000000060005
:1007dc000400fa000040eb00004f78000040eb00f2
:1007ec001047980001003700000000001e80fb003d
:1007fc00c400dd001e4090000080fb000100700072
:10080c002016880000242400f1002000d1000700ed
:10081c001e4090000040e800104798001e409000d9
:10082c00e94f5000030036000040eb0010479800e1
:10083c001e4fe8001e407800e94f500002003600c1
:10084c000040eb00004f780059ff0700100798009c
:10085c001e0090000000e000e3ff32001140800019
:10086c001e00900000804000104088000080fa00bc
:10087c00000006000400fa0090c0b300004f78009e
:10088c0090c0b30010479800010037000000000032
:10089c001e80fb00c400dd001e4090000080fb00a9
:1008ac00010070002016880000242400f1002000b4
:1008bc00a80007001e4090000004e00004003a006d
:1008cc0090c0b300104798001e4fe900030037009a
:1008dc001e4090000040e900104798001e40780030
:1008ec000004e00007003a001e4090000004e00005
:1008fc0004003a0090c0b300004f780090c0b300e1
:10090c00104798002aff0700100798001e0090005f
:10091c000000e000ddff3200114080001e0090005e
:10092c0000804000104088000080fa0000000600a3
:10093c000600fa0070c0b300004f780010002000d1
:10094c001007980001003700000000001e80fb001b
:10095c002016880000242400f10020007d000700f0
:10096c001e009000e10f50000c003a001e40780071
:10097c0000404000004f780080c7b3009e407800d4
:10098c0080cf50001200360000ceb300004f78002c
:10099c000080eb00100798000d0037001e0090003f
:1009ac00e10f40000a003a001e80fb000000d1005d
:1009bc00004f78001e407800e64f500004003e00c7
:1009cc0070c0b300004f7800100020001007980092
:1009dc00f7fe0700200798002e0090000000e000b2
:1009ec00d9ff3200114080002e00900000804000a2
:1009fc00104088000080fa00000006000400fa0095
:100a0c000040eb00004f780010c0b3001047980076
:100a1c0001003700000000001e407800004040003c
:100a2c00004f78001e4090001e4f70001e80fb008f
:100a3c002016880000242400f10020004500070047
:100a4c001e4090000080fb000000e9004f00de001b
:100a5c00104798001e407800e14f400002003a0019
:100a6c000040eb00004f7800d1fe07001007980003
:100a7c001e0090000000e000e6ff320011408000f4
:100a8c001e00900000804000104088000080fa009a
:100a9c00000006000000fa00bdfe07000100370050
:100aac0000000000104080000000e0000300320055
:100abc0010408000e70f50000300360010002000ab
:100acc0010408800f7ff370010408000e10f500005
:100adc0002003a00dafe0700f2ff370010408000f7
:100aec00e20f500002003a00ebfe0700edff37006a
:100afc0010408000e30f500002003a00fcfe07009b
:100b0c00e8ff370010408000e40f500002003a006c
:100b1c0013ff0700e3ff370010408000e50f500083
:100b2c0002003a002aff0700deff37001040800069
:100b3c00e60f500002003a004eff0700d9ff3700c5
:100b4c0010408000e70f5000d5ff3a0078ff0700f7
:040b5c00d4ff37008b
:020000040000fa
:100b6000f03fb1000180b10006003500ee0309003e
:100b700000000000403fb1000180b100fbff3d00dc
:100b80001000b000203fb0000200350000800900d6
:080b9000000000000000060057
:020000040000fa
:100b98000008000002000000000000000208000039
:100ba8000200000002000000010000000000000038
:020000040000fa
:020000040002f8
:04aff8009f7800003e
:020000040000fa
:020000040002f8
:04affc007f3f000093
:00000001FF
