:020000040000fa
:080000000002040000000000f2
:020000040000fa
:040008002c030000c5
:020000040000fa
:04000c002c030000c1
:020000040000fa
:040010002c030000bd
:020000040000fa
:040014002c030000b9
:020000040000fa
:040018002c030000b5
:020000040000fa
:04001c002c030000b1
:020000040000fa
:040020002c030000ad
:020000040000fa
:040024002c030000a9
:020000040000fa
:040028002c030000a5
:020000040000fa
:04002c002c030000a1
:020000040000fa
:040030002c0300009d
:020000040000fa
:040034002c03000099
:020000040000fa
:040038002c03000095
:020000040000fa
:04003c002c03000091
:020000040000fa
:040040002c0300008d
:020000040000fa
:040044002c03000089
:020000040000fa
:040048002c03000085
:020000040000fa
:04004c002c03000081
:020000040000fa
:040050002c0300007d
:020000040000fa
:040054002c03000079
:020000040000fa
:040058002c03000075
:020000040000fa
:04005c002c03000071
:020000040000fa
:040060002c0300006d
:020000040000fa
:040064002c03000069
:020000040000fa
:040068002c03000065
:020000040000fa
:04006c002c03000061
:020000040000fa
:040070002c0300005d
:020000040000fa
:04007400c8020000be
:020000040000fa
:040078002c03000055
:020000040000fa
:04007c002c03000051
:020000040000fa
:040080002c0300004d
:020000040000fa
:040084002c03000049
:020000040000fa
:040088002c03000045
:020000040000fa
:04008c002c03000041
:020000040000fa
:040090002c0300003d
:020000040000fa
:040094002c03000039
:020000040000fa
:040098002c03000035
:020000040000fa
:04009c002c03000031
:020000040000fa
:0400a0002c0300002d
:020000040000fa
:0400a4002c03000029
:020000040000fa
:0400a8002c03000025
:020000040000fa
:0400ac002c03000021
:020000040000fa
:0400b0002c0300001d
:020000040000fa
:0400b4002c03000019
:020000040000fa
:0400b8002c03000015
:020000040000fa
:0400bc002c03000011
:020000040000fa
:0400c0002c0300000d
:020000040000fa
:0400c4002c03000009
:020000040000fa
:0400c8002c03000005
:020000040000fa
:0400cc002c03000001
:020000040000fa
:0400d0002c030000fd
:020000040000fa
:0400d4002c030000f9
:020000040000fa
:0400d8002c030000f5
:020000040000fa
:0400dc002c030000f1
:020000040000fa
:0400e0002c030000ed
:020000040000fa
:0400e4002c030000e9
:020000040000fa
:0400e8002c030000e5
:020000040000fa
:0400ec002c030000e1
:020000040000fa
:0400f0002c030000dd
:020000040000fa
:0400f4002c030000d9
:020000040000fa
:0400f8002c030000d5
:020000040000fa
:0400fc002c030000d1
:020000040000fa
:040100002c030000cc
:020000040000fa
:040104002c030000c8
:020000040000fa
:040108002c030000c4
:020000040000fa
:04010c002c030000c0
:020000040000fa
:040110002c030000bc
:020000040000fa
:040114002c030000b8
:020000040000fa
:040118002c030000b4
:020000040000fa
:04011c002c030000b0
:020000040000fa
:040120002c030000ac
:020000040000fa
:040124002c030000a8
:020000040000fa
:040128002c030000a4
:020000040000fa
:04012c002c030000a0
:020000040000fa
:040130002c0300009c
:020000040000fa
:040134002c03000098
:020000040000fa
:040208002c030000c3
:020000040000fa
:04020c002c030000bf
:020000040000fa
:040210002c030000bb
:020000040000fa
:040214002c030000b7
:020000040000fa
:040218002c030000b3
:020000040000fa
:04021c002c030000af
:020000040000fa
:040220002c030000ab
:020000040000fa
:040224002c030000a7
:020000040000fa
:040228002c030000a3
:020000040000fa
:04022c002c0300009f
:020000040000fa
:040230002c0300009b
:020000040000fa
:040234002c03000097
:020000040000fa
:040238002c03000093
:020000040000fa
:04023c002c0300008f
:020000040000fa
:040240002c0300008b
:020000040000fa
:040244002c03000087
:020000040000fa
:040248002c03000083
:020000040000fa
:04024c002c0300007f
:020000040000fa
:040250002c0300007b
:020000040000fa
:040254002c03000077
:020000040000fa
:040258002c03000073
:020000040000fa
:04025c002c0300006f
:020000040000fa
:040260002c0300006b
:020000040000fa
:040264002c03000067
:020000040000fa
:040268002c03000063
:020000040000fa
:04026c002c0300005f
:020000040000fa
:040270002c0300005b
:020000040000fa
:04027400c8020000bc
:020000040000fa
:040278002c03000053
:020000040000fa
:04027c002c0300004f
:020000040000fa
:040280002c0300004b
:020000040000fa
:040284002c03000047
:020000040000fa
:040288002c03000043
:020000040000fa
:04028c002c0300003f
:020000040000fa
:040290002c0300003b
:020000040000fa
:040294002c03000037
:020000040000fa
:040298002c03000033
:020000040000fa
:04029c002c0300002f
:020000040000fa
:0402a0002c0300002b
:020000040000fa
:0402a4002c03000027
:020000040000fa
:0402a8002c03000023
:020000040000fa
:0402ac002c0300001f
:020000040000fa
:0402b0002c0300001b
:020000040000fa
:0402b4002c03000017
:020000040000fa
:0402b8002c03000013
:020000040000fa
:0402bc002c0300000f
:020000040000fa
:0402c0002c0300000b
:020000040000fa
:0402c4002c03000007
:020000040000fa
:0402c8002c03000003
:020000040000fa
:0402cc002c030000ff
:020000040000fa
:0402d0002c030000fb
:020000040000fa
:0402d4002c030000f7
:020000040000fa
:0402d8002c030000f3
:020000040000fa
:0402dc002c030000ef
:020000040000fa
:0402e0002c030000eb
:020000040000fa
:0402e4002c030000e7
:020000040000fa
:0402e8002c030000e3
:020000040000fa
:0402ec002c030000df
:020000040000fa
:0402f0002c030000db
:020000040000fa
:0402f4002c030000d7
:020000040000fa
:0402f8002c030000d3
:020000040000fa
:0402fc002c030000cf
:020000040000fa
:040300002c030000ca
:020000040000fa
:040304002c030000c6
:020000040000fa
:040308002c030000c2
:020000040000fa
:04030c002c030000be
:020000040000fa
:040310002c030000ba
:020000040000fa
:040314002c030000b6
:020000040000fa
:040318002c030000b2
:020000040000fa
:04031c002c030000ae
:020000040000fa
:040320002c030000aa
:020000040000fa
:040324002c030000a6
:020000040000fa
:040328002c030000a2
:020000040000fa
:04032c002c0300009e
:020000040000fa
:040330002c0300009a
:020000040000fa
:040334002c03000096
:020000040000fa
:100400006f8020000e7f22000e0188000000000097
:10041000000020000000e000020032000001200087
:1004200020028800140007008d0007000000e00093
:1004300003003a00c05120000100200002003700f4
:100440000000200001002000810f70000100320038
:1004500014000700000020000000e000020032004d
:100460000000020000000000d004020000000000b4
:100470000040da000000fe004440a9000000200017
:100480000000e0000300320000002000a00188000e
:100490004440a800000006008a1f78008b1f7800e7
:1004a0000000060091018800800478000000eb0045
:1004b0001a003700e284440032a0b4009905ba0063
:1004c000e284440032a0b4009906ba00e2844400f9
:1004d00032a0b4000006eb00476fde00fd07b2005b
:1004e000636ce10003003a00ebff07000000eb0043
:1004f0000a003700606ce10004003a00005deb0088
:100500008b05e900fdff3e00040037006168e10053
:10051000010032000086eb000b00070019c7ba008b
:100520001905ba000e04e00003003a000a00e000da
:10053000e0ff3a0000000600fe07b2009e018800be
:100540008a047800f5ff3700395dba008b05e900b1
:100550000c003200295dba008b05e900080032006a
:100560000c00e00003003a00e284440032a0b40032
:10057000f5ff370019ddba008b05e900faff3a00f4
:100580008904e800e184440032a0b40000000600c1
:100590003600f800809fbe00829fbe00849fbe0090
:1005a000869fbe000000fa00800c200001002000a1
:1005b00013010700a11680000000220000806000e7
:1005c0000000e00006003a00204080000000e90042
:1005d0002040880010c0b30000e8b7000c003700ce
:1005e000a116800000042000008060000000e000f0
:1005f00006003a00204080000000e800204088000b
:1006000010c0b30000e8b700010037000000000090
:10061000a116800000002200008060000000e000c1
:10062000fbff3200a1168000000420000080600063
:100630000000e000f6ff32008660a9000080fa00aa
:100640004f03be004f02be004f01be004f00be0070
:100650003600f900004006000040da000000fe000d
:040660000000050091
:020000040000fa
:100664001000fa006007980071079800114080009c
:10067400c00c2000808f50000f003e007e009000d0
:100684006500b900000178006e0090006000b900b8
:100694000000780000014100ee00900050002000ae
:1006a4000008b8000101410082007800008fbe00fc
:1006b400008fbe002c0037001140800090192000ec
:1006c400808f500008003e006e019000fe019000f3
:1006d4004218dd00ce10de00810070004210dd0003
:1006e400008fbe00200037001140800060262000eb
:1006f400808f50000f003e007e0090006300b90020
:10070400000178006e0090006000b90000007800dd
:1007140000014100ee009000300020000008b80005
:100724000101410082007800008fbe00008fbe00ee
:100734000d0037001140800030332000808f5000be
:1007440006003e006e009000fe0090000000400095
:1007540081804800008fbe00030037006e019000c6
:10076400fe019000028fbe006000b80020079800d0
:1007740031079800180037006000b800400798005f
:100784005107980007003700000000004e00900059
:10079400de00900061004000e080480040079800bf
:1007a400510798004e019000de01900030062000b1
:1007b40001002000800f5100818f5900f2ff3600a4
:1007c4002e009000be00900061004000e0804800d0
:1007d40020079800310798002e009000be0090007a
:1007e400be0f5000ae8f5800e3ff39000080fa00be
:1007f400000006000000fa002ca3a900000e20004f
:10080400001988002223ef00f0f32100201988004a
:10081400500020004019880021e3a8000080fa005d
:10082400000006000000fa002023a8004006200073
:1008340001002000710007002023a900000000002f
:1008440000198000610060000000e000fcff32003d
:10085400001880000080fa00000006000000fa0082
:10086400f0fd2f0060198800c022ef000080eb002b
:10087400901688006a60a80069e0a80061e0a800fa
:100884006260a8008660a9009660a800d9ff0700ee
:100894000080fa00000006000400fa0070c0b300f3
:1008a400004f780010002000100798000068ef0047
:1008b40023003700dbff0700104088001e80fb0088
:1008c40020168800600920000100200064ff070052
:1008d4001e009000e10f50000c003a001e4078000a
:1008e40000404000004f780080c7b3009e4078006d
:1008f40080cf50001200360000ceb300004f7800c5
:100904000080eb00100798000d0037001e009000d7
:10091400e10f40000a003a001e80fb000000d100f5
:10092400004f78001e407800e64f500004003e005f
:1009340070c0b300004f780010002000100798002a
:1009440000c8bf000004e000daff32000080fa00b3
:10095400000006000200fa0000c0eb00004f78001f
:100964000068ef0008003700aeff07001040880061
:100974001e80fb00201688001e4fe900600920003d
:100984000100200036ff070000c8bf000004e0009b
:10099400f5ff32000080fa00000006000000fa00b3
:1009a400aeff0700204080000000e00003003a0092
:1009b40020002000204088000500370020408000ef
:1009c400e20f500002003600100020002040880092
:1009d40020408000e10f500003003200e20f50007d
:1009e40003003200efff3700abff070002003700bf
:0c09f400d8ff070000000000eaff3700f9
:020000040000fa
:100a0000f03fb1000180b10006003500ee0309009f
:100a100000000000403fb1000180b100fbff3d003d
:100a20001000b000203fb000020035000080090037
:080a30000000000000000600b8
:020000040000fa
:100a3800040800000200000002000000010000009d
:100a48000008000004000000000000000000000092
:020000040000fa
:020000040002f8
:04aff8009f7800003e
:020000040000fa
:020000040002f8
:04affc007f3f000093
:00000001FF
