:020000040000fa
:080000000002040000000000f2
:020000040000fa
:0400080006030000eb
:020000040000fa
:04000c0006030000e7
:020000040000fa
:0400100006030000e3
:020000040000fa
:0400140006030000df
:020000040000fa
:0400180006030000db
:020000040000fa
:04001c0006030000d7
:020000040000fa
:0400200006030000d3
:020000040000fa
:0400240006030000cf
:020000040000fa
:0400280006030000cb
:020000040000fa
:04002c0006030000c7
:020000040000fa
:0400300006030000c3
:020000040000fa
:0400340006030000bf
:020000040000fa
:0400380006030000bb
:020000040000fa
:04003c0006030000b7
:020000040000fa
:0400400006030000b3
:020000040000fa
:0400440006030000af
:020000040000fa
:0400480006030000ab
:020000040000fa
:04004c0006030000a7
:020000040000fa
:0400500006030000a3
:020000040000fa
:04005400060300009f
:020000040000fa
:04005800060300009b
:020000040000fa
:04005c000603000097
:020000040000fa
:040060000603000093
:020000040000fa
:04006400060300008f
:020000040000fa
:04006800060300008b
:020000040000fa
:04006c000603000087
:020000040000fa
:040070000603000083
:020000040000fa
:04007400c8020000be
:020000040000fa
:04007800060300007b
:020000040000fa
:04007c000603000077
:020000040000fa
:040080000603000073
:020000040000fa
:04008400060300006f
:020000040000fa
:04008800060300006b
:020000040000fa
:04008c000603000067
:020000040000fa
:040090000603000063
:020000040000fa
:04009400060300005f
:020000040000fa
:04009800060300005b
:020000040000fa
:04009c000603000057
:020000040000fa
:0400a0000603000053
:020000040000fa
:0400a400060300004f
:020000040000fa
:0400a800060300004b
:020000040000fa
:0400ac000603000047
:020000040000fa
:0400b0000603000043
:020000040000fa
:0400b400060300003f
:020000040000fa
:0400b800060300003b
:020000040000fa
:0400bc000603000037
:020000040000fa
:0400c0000603000033
:020000040000fa
:0400c400060300002f
:020000040000fa
:0400c800060300002b
:020000040000fa
:0400cc000603000027
:020000040000fa
:0400d0000603000023
:020000040000fa
:0400d400060300001f
:020000040000fa
:0400d800060300001b
:020000040000fa
:0400dc000603000017
:020000040000fa
:0400e0000603000013
:020000040000fa
:0400e400060300000f
:020000040000fa
:0400e800060300000b
:020000040000fa
:0400ec000603000007
:020000040000fa
:0400f0000603000003
:020000040000fa
:0400f40006030000ff
:020000040000fa
:0400f80006030000fb
:020000040000fa
:0400fc0006030000f7
:020000040000fa
:0401000006030000f2
:020000040000fa
:0401040006030000ee
:020000040000fa
:0401080006030000ea
:020000040000fa
:04010c0006030000e6
:020000040000fa
:0401100006030000e2
:020000040000fa
:0401140006030000de
:020000040000fa
:0401180006030000da
:020000040000fa
:04011c0006030000d6
:020000040000fa
:0401200006030000d2
:020000040000fa
:0401240006030000ce
:020000040000fa
:0401280006030000ca
:020000040000fa
:04012c0006030000c6
:020000040000fa
:0401300006030000c2
:020000040000fa
:0401340006030000be
:020000040000fa
:0402080006030000e9
:020000040000fa
:04020c0006030000e5
:020000040000fa
:0402100006030000e1
:020000040000fa
:0402140006030000dd
:020000040000fa
:0402180006030000d9
:020000040000fa
:04021c0006030000d5
:020000040000fa
:0402200006030000d1
:020000040000fa
:0402240006030000cd
:020000040000fa
:0402280006030000c9
:020000040000fa
:04022c0006030000c5
:020000040000fa
:0402300006030000c1
:020000040000fa
:0402340006030000bd
:020000040000fa
:0402380006030000b9
:020000040000fa
:04023c0006030000b5
:020000040000fa
:0402400006030000b1
:020000040000fa
:0402440006030000ad
:020000040000fa
:0402480006030000a9
:020000040000fa
:04024c0006030000a5
:020000040000fa
:0402500006030000a1
:020000040000fa
:04025400060300009d
:020000040000fa
:040258000603000099
:020000040000fa
:04025c000603000095
:020000040000fa
:040260000603000091
:020000040000fa
:04026400060300008d
:020000040000fa
:040268000603000089
:020000040000fa
:04026c000603000085
:020000040000fa
:040270000603000081
:020000040000fa
:04027400c8020000bc
:020000040000fa
:040278000603000079
:020000040000fa
:04027c000603000075
:020000040000fa
:040280000603000071
:020000040000fa
:04028400060300006d
:020000040000fa
:040288000603000069
:020000040000fa
:04028c000603000065
:020000040000fa
:040290000603000061
:020000040000fa
:04029400060300005d
:020000040000fa
:040298000603000059
:020000040000fa
:04029c000603000055
:020000040000fa
:0402a0000603000051
:020000040000fa
:0402a400060300004d
:020000040000fa
:0402a8000603000049
:020000040000fa
:0402ac000603000045
:020000040000fa
:0402b0000603000041
:020000040000fa
:0402b400060300003d
:020000040000fa
:0402b8000603000039
:020000040000fa
:0402bc000603000035
:020000040000fa
:0402c0000603000031
:020000040000fa
:0402c400060300002d
:020000040000fa
:0402c8000603000029
:020000040000fa
:0402cc000603000025
:020000040000fa
:0402d0000603000021
:020000040000fa
:0402d400060300001d
:020000040000fa
:0402d8000603000019
:020000040000fa
:0402dc000603000015
:020000040000fa
:0402e0000603000011
:020000040000fa
:0402e400060300000d
:020000040000fa
:0402e8000603000009
:020000040000fa
:0402ec000603000005
:020000040000fa
:0402f0000603000001
:020000040000fa
:0402f40006030000fd
:020000040000fa
:0402f80006030000f9
:020000040000fa
:0402fc0006030000f5
:020000040000fa
:0403000006030000f0
:020000040000fa
:0403040006030000ec
:020000040000fa
:0403080006030000e8
:020000040000fa
:04030c0006030000e4
:020000040000fa
:0403100006030000e0
:020000040000fa
:0403140006030000dc
:020000040000fa
:0403180006030000d8
:020000040000fa
:04031c0006030000d4
:020000040000fa
:0403200006030000d0
:020000040000fa
:0403240006030000cc
:020000040000fa
:0403280006030000c8
:020000040000fa
:04032c0006030000c4
:020000040000fa
:0403300006030000c0
:020000040000fa
:0403340006030000bc
:020000040000fa
:100400000f8120000e7f22000e01880000000000f6
:10041000000020000000e000020032000001200087
:1004200020028800140007007a0007000000e000a6
:1004300003003a00a047200001002000020037001e
:100440000000200001002000810f70000100320038
:1004500014000700000020000000e000020032004d
:100460000000020000000000500402000000000034
:100470000040da000000fe004440a9000000200017
:100480000000e0000300320000002000a00188000e
:100490004440a800000006008a1f78008b1f7800e7
:1004a0000000060091018800800478000000eb0045
:1004b0001a003700e284440032a0b4009905ba0063
:1004c000e284440032a0b4009906ba00e2844400f9
:1004d00032a0b4000006eb00476fde00fd07b2005b
:1004e000636ce10003003a00ebff07000000eb0043
:1004f0000a003700606ce10004003a00005deb0088
:100500008b05e900fdff3e00040037006168e10053
:10051000010032000086eb000b00070019c7ba008b
:100520001905ba000e04e00003003a000a00e000da
:10053000e0ff3a0000000600fe07b2009e018800be
:100540008a047800f5ff3700395dba008b05e900b1
:100550000c003200295dba008b05e900080032006a
:100560000c00e00003003a00e284440032a0b40032
:10057000f5ff370019ddba008b05e900faff3a00f4
:100580008904e800e184440032a0b40000000600c1
:100590003600f800809fbe00829fbe00849fbe0090
:1005a000869fbe000000fa00800c200001002000a1
:1005b000c2000700a1168000000420000080600037
:1005c0000000e00003003a000268ef00c422ef00e0
:1005d0000100370000000000a11680000004200088
:1005e000008060000000e000fbff32008660a90090
:1005f0000080fa004f03be004f02be004f01be0054
:100600004f00be003600f900004006000040da004e
:080610000000fe0000000500df
:020000040000fa
:100618000c00fa0040079800510798006000b800e5
:10062800008fbe00160037006000b8002007980051
:100638003107980007003700000000002e009000e6
:10064800be00900061004000e0804800200798004c
:10065800310798002e019000be019000300620005e
:1006680001002000800f5100818f5900f2ff3600f1
:1006780012002000030020001e0f41005e97490071
:100688004e009000de0090001e01be00800f510059
:10069800818f5900e4ff39000080fa00000006004d
:1006a8000000fa002ca3a900000e20000019880001
:1006b8002223ef00f0f321002019880050002000c9
:1006c8004019880021e3a8000080fa000000060015
:1006d8000000fa002023a8004006200001002000a6
:1006e800740007002023a900000000000019800002
:1006f800610060000000e000fcff3200001880008c
:100708000080fa00000006000000fa00f0fd2f004b
:1007180060198800c022ef000080eb009016880066
:1007280069e0a80061e0a8008660a9009660a800ba
:10073800dbff0700c422ef000080fa00000006007b
:100748000000fa00e2ff07000040880002c8bf006e
:100758000080fb00e10f500010003200e20f500053
:100768003d0032000000e00049003a0001408000ee
:1007780070408000808f50004000360010c0b300e9
:1007880002e8b7000428ef000628ef000828ef0069
:100798000a28ef000c68ef003d0037002040800079
:1007a8003140800061004000e0804800204088001f
:1007b8003140880040408000514080006100400086
:1007c800e080480040408800514088004240800056
:1007d800534080007002200001002000800f51006b
:1007e800818f59000c0036000828ef000a28ef0016
:1007f8000cc8bf000004e00005003a00100020000b
:100808002016880010c0b3000ce8b70002003700bb
:10081800c422ef000c68ef002240800033408000c3
:10082800101c200001002000800f5100818f59000a
:100838000200360020c0b30002e8b7000140800083
:1008480070408000808f50000e0031000268ef0079
:10085800c422ef000e003700f00f20002016880099
:100868000140800070408000808f500007003100f8
:100878000268ef00c422ef00050037000000000006
:1008880003003700000000000100370000000000ee
:100898000080fa00000006000000fa009aff070036
:1008a800a7ff0700900120000100200058ff070063
:0408b800fbff37000b
:020000040000fa
:1008bc00f03fb1000180b10006003500ee030900e5
:1008cc0000000000403fb1000180b100fbff3d0083
:1008dc001000b000203fb00002003500008009007d
:0808ec000000000000000600fe
:020000040000fa
:1008f400000800000e000000000000000e080000c8
:1009040002000000020000000002000000000000dd
:020000040000fa
:020000040002f8
:04aff8009f7800003e
:020000040000fa
:020000040002f8
:04affc007f3f000093
:00000001FF
